:03000000020003F8
:0C000300787FE4F6D8FD75811302004AF6
:0B0122007D017C007F0112008F80F542
:0C0115000A083F065B4F666D7D077F6F98
:0A00FC00EF1FAC0670011E4C600EF1
:0C0106007512027513EFD513FDD512FA27
:0301120080E82260
:10008F00EF14B4080050549000A475F003A4C58376
:10009F0025F0C583730200BC0200C00200C4020039
:1000AF00C80200CC0200D40200DC0200E4C2A4802B
:1000BF000EC2A48012C2A48016C2A4801AD2A4C2F7
:1000CF00A3C2A28016D2A4C2A3D2A2800ED2A4D25F
:1000DF00A3C2A28006D2A4D2A3D2A274082DF8E69E
:0D00EF00F5807F017E001200FCE4F5802208
:10000F00020122E493A3F8E493A34003F68001F2E4
:10001F0008DFF48029E493A3F85407240CC8C333F2
:10002F00C4540F4420C8834004F456800146F6DFC1
:10003F00E4800B0102040810204080900115E47E3B
:10004F00019360BCA3FF543F30E509541FFEE493B6
:10005F00A360010ECF54C025E060A840B8E493A37D
:10006F00FAE493A3F8E493A3C8C582C8CAC583CAA8
:10007F00F0A3C8C582C8CAC583CADFE9DEE780BE60
:0101210000DD
:00000001FF
