:03000000020003F8
:0C000300787FE4F6D8FD75813902004AD0
:1001D4002023081D5595F708FF5A29480055F5BFF7
:1001E400F51F00000804FA493234480400000000F6
:0601F40000000000000005
:1000FC00E4F535F536F537C2B6C2B5E4F535AF35AE
:10010C00EF3395E0FEC3EF9408EE648094805012B8
:10011C00E53525362408F8E6FD7C00120207053586
:10012C0080DC0537AF37EF3395E0FEC3EF940AEE72
:10013C00648094804005E4F5370536AF36EF33958F
:10014C00E0FEC3EF941AEE6480948040AEE4F53682
:02015C0080A978
:0C01FA000A2B3F065B4F666D7D077F6F90
:040229007F147E00C0
:0A022D00EF1FAC0670011E4C600EBE
:0C0237007538027539EFD539FDD538FA5D
:0302430080E8222E
:10008F00EF14B4080050549000A475F003A4C58376
:10009F0025F0C583730200BC0200C00200C4020039
:1000AF00C80200CC0200D40200DC0200E4C2A4802B
:1000BF000EC2A48012C2A48016C2A4801AD2A4C2F7
:1000CF00A3C2A28016D2A4C2A3D2A2800ED2A4D25F
:1000DF00A3C2A28006D2A4D2A3D2A2742B2DF8E67B
:0D00EF00F5807F017E0012022DE4F58022D5
:10015E00E4FD20B10E7F14FE12022D30B1FD12020D
:10016E00297D0120B00B12022930B0FD1202297D2B
:10017E000220B20B12022930B2FD1202297D032099
:0F018E00B30B12022930B3FD1202297D04AF0515
:01019D00223F
:100261005389F0438901758A18758CFCC28DD28C33
:07027100D2A9D2AFC2B922ED
:1002460075985043878053890F438920758BF375C2
:0B0256008DF3C2ABD28ED2AFD2AC222F
:080278008F993099FDC2992213
:02019E00AD07AB
:1001A000E4FBEBC394087480948050237E00748039
:1001B000A803088006CEA2E713CE13D8F8FFEDF50A
:1001C00082EF558224FF92B4D2B6C2B60B80D3D24E
:0301D000B5C2B500
:0101D3002209
:10020700AA07AF0512019EAF02A8077480088002F3
:10021700C313D8FCF4F5807F017E0012022D758090
:02022700FF22B4
:10000F000200FCE493A3F8E493A34003F68001F20B
:10001F0008DFF48029E493A3F85407240CC8C333F2
:10002F00C4540F4420C8834004F456800146F6DFC1
:10003F00E4800B01020408102040809001D4E47E7C
:10004F00019360BCA3FF543F30E509541FFEE493B6
:10005F00A360010ECF54C025E060A840B8E493A37D
:10006F00FAE493A3F8E493A3C8C582C8CAC583CAA8
:10007F00F0A3C8C582C8CAC583CADFE9DEE780BE60
:0102060000F7
:00000001FF
