:0300000002000EED
:0C000E00787FE4F6D8FD758117020055DC
:1001A60075A0FE1201E81201668F14E51460F7646B
:1001B6000170F30515C3E51594027480948040E63A
:0501C600E4F51580E1E5
:03000B00020107E8
:0F010700C0E0C0D075D000C000C004C005C00764
:10011600758A18758CFC0513E5137002051264F4D4
:100126007004E5126401702BF512F513E515FD7CDC
:1001360000700DAFA07801EF08800123D8FDF5A06F
:10014600ED64014C700DAFA07801EF08800103D873
:03015600FDF5A014
:0D015900D007D005D004D000D0D0D0E032C7
:0C01FF000A083F065B4F666D7D077F6FAE
:0401CB007F147E001F
:0A01CF00EF1FAC0670011E4C600E1D
:0C01D9007516027517EFD517FDD516FA44
:0301E50080E8228D
:10009A00EF14B4080050549000AF75F003A4C58360
:1000AA0025F0C583730200C70200CB0200CF02000D
:1000BA00D30200D70200DF0200E70200EFC2A480E9
:1000CA000EC2A48012C2A48016C2A4801AD2A4C2EC
:1000DA00A3C2A28016D2A4C2A3D2A2800ED2A4D254
:1000EA00A3C2A28006D2A4D2A3D2A274082DF8E693
:0D00FA00F5807F017E001201CFE4F5802229
:10016600E4FD20B10E7F14FE1201CF30B1FD120165
:10017600CB7D0120B00B1201CB30B0FD1201CB7D3F
:100186000220B20B1201CB30B2FD1201CB7D03204F
:0F019600B30B1201CB30B3FD1201CB7D04AF05CB
:0101A5002237
:1001E8005389F0438901758A18758CFCC28DD28CAD
:0701F800D2A9D2AFC2B92267
:10001A000201A6E493A3F8E493A34003F68001F255
:10002A0008DFF48029E493A3F85407240CC8C333E7
:10003A00C4540F4420C8834004F456800146F6DFB6
:10004A00E4800B01020408102040809001FFE47E46
:10005A00019360BCA3FF543F30E509541FFEE493AB
:10006A00A360010ECF54C025E060A840B8E493A372
:10007A00FAE493A3F8E493A3C8C582C8CAC583CA9D
:10008A00F0A3C8C582C8CAC583CADFE9DEE780BE55
:01020B0000F2
:00000001FF
