:0300000002019367
:0C019300787FE4F6D8FD75812C0201DABB
:0B0487004D61747269784B65793A0092
:10038F001204577BFF7A0479877D017F011203DB0B
:10039F001200038F2CE52C60F7FB7A007516027D97
:0803AF00017F021203B780E890
:06046B00C2A58F80D2A79C
:080471007F027EEFDEFEDFFCDE
:010479002260
:0A049200C2A612046BC2A702047197
:1003FE00CFCDCFCECCCE12013E7C007D0A12013E77
:04040E00ED2430FFAA
:0A041200D2A612046BC2A702047107
:10041C00AE07EEFB7A0064017004ED148009EB6406
:0E042C00024A7009ED243F4480FF1204922220
:100457007F381204927F0C1204927F061204927F57
:0404670001020492F8
:0A049C00AC0312041CAF04020412AA
:0603DB008B128A13891445
:1003E10012041CE4FDAB12AA13A9148D82758300BB
:0C03F1001200FFFF60061204120D80E9EC
:0103FD0022DD
:0A035E00EF24FFFDEE34FFFC7F0AE0
:080368008E178F188C198D1AF5
:100370007F017E00E4FBEBC3951AE5196480F874F5
:0E0380008098500AAC17AD1812012C0B80E8C3
:01038E00224C
:0403B7008A148B1504
:1003BB0012041CAA16EAFF7E00D39400748094806A
:0F03CB00400D12035EAC14AD151203FE1A80E64E
:0103DA002200
:0402D7008B828A8309
:1002DB0012041CC3E58364809480400D7F2B1204B1
:1002EB001285832085822180107F2D120412C3E496
:1002FB009582F521E49583F520AA1FEAFF7E00D3B2
:10030B00940074809480400D12035EAC20AD2112DA
:05031B0003FE1A80E65C
:0103200022BA
:04028C008A248B2510
:1002900012041CAA26EAD39400748094804037EAA2
:1002A00024FFFDE434FFFC7F107E00120368AC24C1
:1002B000AD25CFCDCFCECCCE12013EEF540FFEC335
:1002C000940A74809480EE5004243080022437FF16
:0602D0001204121A80BFA7
:0102D6002205
:040321008A298B2A70
:1003250012041CAA2BEAFF7E00D3940074809480EB
:100335004026EF24FFFDEE34FFFC7F02120368AC7C
:1003450029AD2ACFCDCFCECCCE12013EEF5401241C
:0803550030FF1204121A80CDE2
:01035D00227D
:0C047A000A083F065B4F666D7D077F6F30
:04043A007F147E00AD
:0A043E00EF1FAC0670011E4C600EAB
:0C0448007512027513EFD513FDD512FAE2
:0304540080E8221B
:10021F00EF14B40800505490023475F003A4C58352
:10022F0025F0C5837302024C0202500202540202EF
:10023F005802025C02026402026C020274C2A480C1
:10024F000EC2A48012C2A48016C2A4801AD2A4C265
:10025F00A3C2A28016D2A4C2A3D2A2800ED2A4D2CD
:10026F00A3C2A28006D2A4D2A3D2A274082DF8E60C
:0D027F00F5807F017E0012043EE4F5802230
:10000300E4FD7590FFC29320970E7F14FE12043E09
:100013003097FD12043A7D0120960B12043A309674
:10002300FD12043A7D0520950B12043A3095FD121A
:10003300043A7D0920940B12043A3094FD12043AD9
:100043007D0D7590FFC29220970B12043A3097FDF5
:1000530012043A7D0220960B12043A3096FD1204E4
:100063003A7D0620950B12043A3095FD12043A7D31
:100073000A20940B12043A3094FD12043A7D0E7553
:1000830090FFC29120970B12043A3097FD12043A65
:100093007D0320960B12043A3096FD12043A7D0735
:1000A30020950B12043A3095FD12043A7D0B2094EF
:1000B3000B12043A3094FD12043A7D0F7590FFC27F
:1000C3009020970B12043A3097FD12043A7D0420D6
:1000D300960B12043A3096FD12043A7D0820950BD4
:1000E30012043A3095FD12043A7D0C20940B12044D
:0B00F3003A3094FD12043A7D10AF0576
:0100FE0022DF
:10019F0002038FE493A3F8E493A34003F68001F2E4
:1001AF0008DFF48029E493A3F85407240CC8C33361
:1001BF00C4540F4420C8834004F456800146F6DF30
:1001CF00E4800B010204081020408090047AE47E42
:1001DF00019360BCA3FF543F30E509541FFEE49325
:1001EF00A360010ECF54C025E060A840B8E493A3EC
:1001FF00FAE493A3F8E493A3C8C582C8CAC583CA17
:10020F00F0A3C8C582C8CAC583CADFE9DEE780BECE
:010486000075
:1000FF00BB010CE58229F582E5833AF583E02250B6
:10010F0006E92582F8E622BBFE06E92582F8E222FF
:0D011F00E58229F582E5833AF583E4932219
:10012C00EF8DF0A4A8F0CF8CF0A428CE8DF0A42EE7
:02013C00FE22A1
:10013E00BC000BBE0029EF8DF084FFADF022E4CCA5
:10014E00F875F008EF2FFFEE33FEEC33FCEE9DEC6E
:10015E00984005FCEE9DFE0FD5F0E9E4CEFD22EDB4
:10016E00F8F5F0EE8420D21CFEADF075F008EF2FFE
:10017E00FFED33FD4007985006D5F0F222C398FDEF
:05018E000FD5F0EA228C
:00000001FF
