:03000000020003F8
:0C000300787FE4F6D8FD75811402004AF5
:05023200007FF7DFFE74
:0102370022A4
:04017200AD07AC0623
:10017600E4FBFAED25E0FFEC33FEC3EB9FEA9E506D
:0D0186000CB2A51202320BBB00010A80E68C
:010193002249
:1001EE001200FC8F14D3EF94007480948040F17F42
:0801FE00647E0012017280E82A
:0C021D000A083F065B4F666D7D077F6F8F
:0401B6007F147E0034
:0A01BA00EF1FAC0670011E4C600E32
:0C01C4007512027513EFD513FDD512FA69
:0301D00080E822A2
:10008F00EF14B4080050549000A475F003A4C58376
:10009F0025F0C583730200BC0200C00200C4020039
:1000AF00C80200CC0200D40200DC0200E4C2A4802B
:1000BF000EC2A48012C2A48016C2A4801AD2A4C2F7
:1000CF00A3C2A28016D2A4C2A3D2A2800ED2A4D25F
:1000DF00A3C2A28006D2A4D2A3D2A274082DF8E69E
:0D00EF00F5807F017E001201BAE4F5802249
:1000FC00E4FD20B10E7F14FE1201BA30B1FD1201E5
:10010C00B67D0120B00B1201B630B0FD1201B67DE8
:10011C000220B20B1201B630B2FD1201B67D0320E3
:0F012C00B30B1201B630B3FD1201B67D04AF055F
:01013B0022A1
:100206005389F0438901758A18758CFCC28DD28C8E
:07021600D2A9D2AFC2B92248
:1001D30075985043878053890F438920758BF37536
:0B01E3008DF3C2ABD28ED2AFD2AC22A3
:08022A008F993099FDC2992261
:02013C00AD070D
:10013E00E4FBEBC394087480948050237E0074809B
:10014E00A803088006CEA2E713CE13D8F8FFEDF56C
:10015E0082EF558224FF92B4D2B6C2B60B80D3D2B0
:03016E00B5C2B562
:01017100226B
:10019400AA07AF0512013CAF02A8077480088002C9
:1001A400C313D8FCF4F5807F017E001201BA758078
:0201B400FF2228
:10000F000201EEE493A3F8E493A34003F68001F218
:10001F0008DFF48029E493A3F85407240CC8C333F2
:10002F00C4540F4420C8834004F456800146F6DFC1
:10003F00E4800B010204081020408090021DE47E32
:10004F00019360BCA3FF543F30E509541FFEE493B6
:10005F00A360010ECF54C025E060A840B8E493A37D
:10006F00FAE493A3F8E493A3C8C582C8CAC583CAA8
:10007F00F0A3C8C582C8CAC583CADFE9DEE780BE60
:0102290000D4
:00000001FF
