:030000000202A257
:0C02A200787FE4F6D8FD75812502019AF2
:10019A007FE87E0312020F12027F1202698F257F07
:1001AA00F47E0112020FE525FB7A00750C037D012E
:0E01BA007F011201C87FE87E0312020F80E869
:10020F00D3EF9400EE940040147D737C00ED1D70CD
:0D021F00011CED4C70F7EF1F70E61E80E330
:01022C0022AF
:10026900D290C2907F247ED9DEFEDFFC7F0BDFFEB9
:05027900A290E433FF38
:01027E00225D
:06029300C2A58F80D2A776
:080299007F027EEFDEFEDFFCB8
:0102A100223A
:0A02AE00C2A6120293C2A702029931
:10022D00CFCDCFCECCCE1200427C007D0A12004243
:04023D00ED2430FF7D
:0A024100D2A6120293C2A70202998E
:10024B00AE07EEFB7A0064017004ED148009EB64D9
:0E025B00024A7009ED243F4480FF1202AE22D9
:10027F007F381202AE7F0C1202AE7F061202AE7FE3
:04028F00010202AEB8
:0A02B800AC0312024BAF0402024136
:0601EC008B228A23892406
:1001F20012024BE4FDAB22AA23A9248D827583004F
:0C020200120003FF60061202410D80E9AB
:01020E0022CD
:0A016900EF24FFFDEE34FFFC7F0AD7
:080173008E0D8F0E8C0F8D1014
:10017B007F017E00E4FBEBC39510E50F6480F87400
:0E018B008098500AAC0DAD0E1200300B80E8CB
:010199002243
:0401C8008A0A8B0B09
:1001CC0012024BAA0CEAFF7E00D394007480948038
:0F01DC00400D120169AC0AAD0B12022D1A80E61C
:0101EB0022F1
:0400E2008B828A8300
:1000E60012024BC3E58364809480400D7F2B12027D
:1000F6004185831685821780107F2D120241C3E445
:100106009582F517E49583F516AA15EAFF7E00D3C6
:10011600940074809480400D120169AC16AD1712DC
:05012600022D1A80E625
:01012B0022B1
:040097008A1A8B1B1B
:10009B0012024BAA1CEAD39400748094804037EA76
:1000AB0024FFFDE434FFFC7F107E00120173AC1AB9
:1000BB00AD1BCFCDCFCECCCE120042EF540FFEC333
:1000CB00940A74809480EE5004243080022437FF0D
:0600DB001202411A80BF71
:0100E10022FC
:04012C008A1F8B207B
:1001300012024BAA21EAFF7E00D3940074809480BF
:100140004026EF24FFFDEE34FFFC7F02120173AC6A
:100150001FAD20CFCDCFCECCCE120042EF54012424
:0801600030FF1202411A80CDAC
:010168002274
:10000300BB010CE58229F582E5833AF583E02250B2
:1000130006E92582F8E622BBFE06E92582F8E222FC
:0D002300E58229F582E5833AF583E4932216
:10003000EF8DF0A4A8F0CF8CF0A428CE8DF0A42EE4
:02004000FE229E
:10004200BC000BBE0029EF8DF084FFADF022E4CCA2
:10005200F875F008EF2FFFEE33FEEC33FCEE9DEC6B
:10006200984005FCEE9DFE0FD5F0E9E4CEFD22EDB1
:10007200F8F5F0EE8420D21CFEADF075F008EF2FFB
:10008200FFED33FD4007985006D5F0F222C398FDEC
:050092000FD5F0EA2289
:00000001FF
