:030000000201BB3F
:0C01BB00787FE4F6D8FD75816002020236
:10000E001B021D02200219021B021D0220021902F0
:10001E001B021D02200222021B021D0216021902E1
:10002E001B021D02200219021B021D0220021902D0
:10003E001B021D02200222021B021D0216021902C1
:10004E000F02110214020D020F02110214020D0210
:10005E000F02110214020D020F02110214020D0200
:10006E000F02110214020D020F02110214020D02F0
:10007E000F02110214020D020F02110205020802F4
:10008E000A040D020F040D02080206020502080200
:10009E000D0400040D020C020A040D040C020804E7
:1000AE000802080400040004050208020A040D02F6
:1000BE000F040D0208020602050208020C020D02D0
:1000CE0000040D020C020A040D040C0208040802BE
:1000DE000A04000400040A020C020F040C020A02B5
:1000EE000C020D0400020C020A020C020D020C029C
:1000FE0008020A02080201040A02080201020304AD
:10010E00050400080A020C020F040C020A020C027B
:10011E000D0400020C020A020C020D020F02110263
:10012E00120212020D040F0111010F020D06000C36
:10013E001102140111010F020D020A010D020F032B
:10014E0000021102140111010F020D0208010D022D
:10015E000D0300021102140111010F020002110120
:10016E0014041802140112011102110800041102E4
:10017E00140111010F020D020A010D020F030002FC
:10018E001102140111010F020D020A010D050002E8
:10019E000D010C010A010C010C020A010F040C02E4
:0D01AE000A020C0418020F040D040004FFE7
:1002B400204A0B0000F88CF8F3F95BF9B8FA15FA48
:1002C40067FAB9FB04FB4BFB90FBCFFC10FC44FC2E
:1002D40079FCACFCDCFD09FD34FD5CFD82FDA6FD72
:1002E400C8FDE8FE06FE22FE3DFE56FE6EFE85FEBD
:0D02F4009AFEAEFEC1FED3FEE4FEF4FF0351
:1003BA00120445E50890000E93FFF460208F0905AA
:1003CA0008E5089375F07DA4FFAEF0120411050844
:1003DA00C28C7F057E00120411D28C80D6C28C801A
:0103EA00FE14
:03000B0002034E9F
:10034E00C0E0C0D075D000C000C006E50925E0248D
:10035E000BF8E6FE08E64E6014E50925E0240BF8DE
:10036E00E6FE08E6F58AEEF58CB2A5B2A0D006D070
:06037E0000D0D0D0E032F7
:0C0301000A553F065B4F666D7D077F6F5D
:04040D007F147E00DA
:0A041100EF1FAC0670011E4C600ED8
:0C041B00755F027560EFD560FDD55FFADB
:0304270080E82248
:10024700EF14B40800505490025C75F003A4C58302
:1002570025F0C5837302027402027802027C02024F
:100267008002028402028C02029402029CC2A480D1
:100277000EC2A48012C2A48016C2A4801AD2A4C23D
:10028700A3C2A28016D2A4C2A3D2A2800ED2A4D2A5
:10029700A3C2A28006D2A4D2A3D2A274552DF8E697
:0D02A700F5807F017E00120411E4F5802235
:10030E00E4FD20B10E7F14FE12041130B1FD120473
:10031E000D7D0120B00B12040D30B0FD12040D7DC9
:10032E000220B20B12040D30B2FD12040D7D03201B
:0F033E00B30B12040D30B3FD12040D7D04AF0597
:01034D00228D
:100445005389F0438901758A18758CFCC28DD28C4D
:07045500D2A9D2AFC2B92207
:10042A0075985043878053890F438920758BF375DC
:0B043A008DF3C2ABD28ED2AFD2AC2249
:080003008F993099FDC299228A
:02038400AD07C3
:10038600E4FBEBC394087480948050237E00748051
:10039600A803088006CEA2E713CE13D8F8FFEDF522
:1003A60082EF558224FF92B4D2B6C2B60B80D3D266
:0303B600B5C2B518
:0103B9002221
:1003EB00AA07AF05120384AF02A807748008800226
:1003FB00C313D8FCF4F5807F017E001204117580C5
:02040B00FF22CE
:1001C7000203BAE493A3F8E493A34003F68001F291
:1001D70008DFF48029E493A3F85407240CC8C33339
:1001E700C4540F4420C8834004F456800146F6DF08
:1001F700E4800B01020408102040809002B4E47EE2
:10020700019360BCA3FF543F30E509541FFEE493FC
:10021700A360010ECF54C025E060A840B8E493A3C3
:10022700FAE493A3F8E493A3C8C582C8CAC583CAEE
:10023700F0A3C8C582C8CAC583CADFE9DEE780BEA6
:01030D0000EF
:00000001FF
