:0300000002049760
:0C049700787FE4F6D8FD7581380204DEA1
:0C09E5000A153F065B4F666D7D077F6FB3
:040996007F147E004C
:0A099A00EF1FAC0670011E4C600E4A
:0C09A400751F027520EFD520FDD51FFA4D
:0309B00080E822BA
:10061C00EF14B40800505490063175F003A4C58350
:10062C0025F0C5837302064902064D0206510206E7
:10063C0055020659020661020669020671C2A480BF
:10064C000EC2A48012C2A48016C2A4801AD2A4C264
:10065C00A3C2A28016D2A4C2A3D2A2800ED2A4D2CC
:10066C00A3C2A28006D2A4D2A3D2A274152DF8E6FE
:0D067C00F5807F017E0012099AE4F58022CE
:1007D400E4FD20B10E7F14FE12099A30B1FD120916
:1007E400967D0120B00B12099630B0FD1209967D5A
:1007F4000220B20B12099630B2FD1209967D032035
:0F080400B30B12099630B3FD1209967D04AF05B0
:0108130022C2
:1009CE005389F0438901758A18758CFCC28DD28CBF
:0709DE00D2A9D2AFC2B92279
:1009B30075985043878053890F438920758BF3754E
:0B09C3008DF3C2ABD28ED2AFD2AC22BB
:080003008F993099FDC299228A
:02088A00AD07B8
:10088C00E4FBEBC394087480948050237E00748046
:10089C00A803088006CEA2E713CE13D8F8FFEDF517
:1008AC0082EF558224FF92B4D2B6C2B60B80D3D25B
:0308BC00B5C2B50D
:0108BF002216
:10093800AA07AF0512088AAF02A8077480088002C8
:10094800C313D8FCF4F5807F017E0012099A7580E4
:02095800FF227C
:060A0F00C2A58F80D2A7F2
:080A15007F027EEFDEFEDFFC34
:010A1D0022B6
:0A0A1E00C2A6120A0FC2A7020A15B1
:10095A00CFCDCFCECCCE1204427C007D0A12044207
:04096A00ED2430FF49
:0A096E00D2A6120A0FC2A7020A1552
:10097800AE07EEFB7A0064017004ED148009EB64A5
:0E098800024A7009ED243F4480FF120A1E222D
:1009FB007F38120A1E7F0C120A1E7F06120A1E7FF8
:040A0B0001020A1EBC
:0A0A2800AC03120978AF0402096E56
:060915008B1F8A208921DE
:10091B00120978E4FDAB1FAA20A9218D82758300F3
:0C092B00120403FF600612096E0D80E943
:01093700229D
:0A08C000EF24FFFDEE34FFFC7F0A79
:0808CA008E248F258C268D275A
:1008D2007F017E00E4FBEBC39527E5266480F87474
:0E08E2008098500AAC24AD251204300B80E83B
:0108F00022E5
:0408F1008A218B22AB
:1008F500120978AA23EAFF7E00D3940074809480BD
:0F090500400D1208C0AC21AD2212095A1A80E62B
:0109140022C0
:040740008B828A839B
:10074400120978C3E58364809480400D7F2B1209DD
:100754006E85832D85822E80107F2D12096EC3E451
:100764009582F52EE49583F52DAA2CEAFF7E00D31D
:10077400940074809480400D1208C0AC2DAD2E12EC
:05078400095A1A80E68D
:01078900224D
:0406F5008A318B3289
:1006F900120978AA33EAD39400748094804037EAC7
:1007090024FFFDE434FFFC7F107E001208CAAC31DF
:10071900AD32CFCDCFCECCCE120442EF540FFEC3B3
:10072900940A74809480EE5004243080022437FFA8
:0607390012096E1A80BFD8
:01073F002297
:040814008A368B375E
:10081800120978AA38EAFF7E00D394007480948085
:100828004026EF24FFFDEE34FFFC7F021208CAAC1D
:1008380036AD37CFCDCFCECCCE120442EF54012403
:0808480030FF12096E1A80CD89
:010850002285
:050A370054696D65002B
:0909F100070B373B17050702163E
:050A3200C2B5C2B622AE
:0505A0002DFDEE3CFC06
:0605A5008C1F8D20AB0746
:1005AB00D2B5E4FDEDFF3395E0FEC3EF9408EE64A6
:1005BB0080948050227E007401A805088005C33307
:1005CB00CE33CED8F9FFEBF582EF558224FF92B4F0
:1005DB00D2B6C2B60D80CDE4FDEDFF3395E0FEC380
:1005EB00EF9408EE6480948050247E007401A8057B
:1005FB00088005C333CE33CED8F9FFE51F5EFEE589
:10060B00205F4E24FF92B4D2B6C2B60D80CBC2B5DA
:01061B0022BC
:02068900A907BF
:10068B00E4FD430101D2B5FBEBC394087480948065
:10069B0050227E007401A803088005C333CE33CEED
:1006AB00D8F9FFE9F582EF558224FF92B4C2B6D296
:1006BB00B60B80D4E4FBEBC3940874809480501782
:1006CB00D2B6C2B630B40DA8037401088002C3338E
:1006DB00D8FC42050B80DFC2B5C2B4EDC4540F7514
:0906EB00F00AA4FFED540F2FFFEB
:0106F40022E3
:1002BB00E50B75F00A1203E1FF3395E0FE7C007D40
:1002CB0006120430AD0BED3395E0FCEF7F80120589
:1002DB00A0E50C75F00A1203E1FF3395E0FE7C00FC
:1002EB007D06120430AD0CED3395E0FCEF7F8212EE
:1002FB0005A0E50D75F00A1203E1FF3395E0FE7CD6
:10030B00007D06120430AD0DED3395E0FCEF2DFDB5
:10031B00EE3CFC7F841205A5E50E75F00A1203E195
:10032B00FF3395E0FE7C007D06120430AD0EED33FD
:10033B0095E0FCEF2DFDEE3CFC7F861205A5E50F4D
:10034B0075F00A1203E1FF3395E0FE7C007D061287
:10035B000430AD0FED3395E0FCEF2DFDEE3CFC7F53
:10036B00881205A5E51075F00A1203E1FF3395E03D
:10037B00FE7C007D06120430AD10ED3395E0FCEFF2
:10038B002DFDEE3CFC7F8A1205A5E51175F00A12D6
:10039B0003E1FF3395E0FE7C007D06120430AD11C6
:1003AB00ED3395E0FCEF2DFDEE3CFC7F8C1205A5AB
:1003BB00E51275F00A1203E1FF3395E0FE7C007D38
:1003CB0006120430AD12ED3395E0FCEF2DFDEE3C43
:0603DB00FC7F8E0205A567
:100523007BFF7A0A79377D017F01120915E50AFB02
:100533003395E0FA7523027D0F7F011208F17F895D
:10054300120689EFFB7A007523027D017F021208F0
:10055300F17F87120689EFFB7A007523027D047F02
:10056300021208F17F85120689EFFB7A00752302D8
:100573007D077F021208F17F83120689EFFB7A0061
:100583007523027D0A7F021208F17F81120689EF2B
:0D059300FB7A007523027D0D7F020208F146
:10000E00AF14EF3395E0FEEF64024E700D0512E56E
:10001E001275F0061203E185F012EF64034E6003D1
:10002E00020155740B2512F806AF12EF3395E0FE60
:10003E004F700C740B2512F8E6FD75F03C802AEF1C
:10004E0064014E700D740B2512F8E6FF75F03C023C
:10005E00014EAF12EF3395E0FEEF64024E70147452
:10006E000B2512F8E6FD75F0181203E1ADF0A605AA
:10007E00020155EF64034E7073E51175F00412031F
:10008E00E1AFF0EF3395E04F701EAF0FEF3395E019
:10009E00FEEF64024E7011740B2512F8E6FF75F038
:1000AE001E1203E1AFF0A607E50F24FE60261460D2
:1000BE001724FE601324FE600F14600C24FE6008EB
:1000CE0024FE6004240B7018740B2512F8E6FF75DD
:1000DE00F020806C740B2512F8E6FF75F01D806021
:1000EE00740B2512F8E6FF75F01F8054AF12EF3334
:1000FE0095E0FEEF64044E704E740B2512F8E6FD8B
:10010E00FB3395E0FAD3EB940CEA648094804009BB
:10011E00740B2512F87601802EEF64064E700B7468
:10012E000B2512F8ED75F0088016AF12EF3395E03F
:10013E00FEEF64054E7010740B2FF8E6FF75F0633A
:10014E001203E1AFF0A607AF14EF3395E0FEEF64B4
:10015E00034E60030202BA740B2512F816AF12EFAB
:10016E003395E0FE4F7012740B2512F8E63395E0CE
:10017E00C36480948050028016EF64014E70187430
:10018E000B2512F8E63395E0C36480948050087412
:10019E000B2512F8763B22AF12EF3395E0FEEF649B
:1001AE00024E7016740B2FF8E63395E0C3648094FC
:1001BE00805007740B2FF8761722AF12EF3395E0AD
:1001CE00FEEF64014E6003020255740B2FF8E6FF3A
:1001DE003395E0FEC3EF9401EE648094805068E5A1
:1001EE001175F0041203E1ADF0ED3395E04D701F83
:1001FE00AD0FED3395E0FCED64024C7012C3EF943D
:10020E0001EE648094805007740B2512F8761DE57C
:10021E000F24FE602214601724FE601324FE600F6C
:10022E0014600C24FE600824FE6004240B7010740D
:10023E000B2512F8761F22740B2512F8761C2274E9
:10024E000B2512F8761E22AF12EF3395E0FEEF6407
:10025E00044E7016740B2FF8E63395E0C364809449
:10026E00805007740B2FF8760C22AF12EF3395E007
:10027E00FEEF64064E7018740B2512F8E63395E007
:10028E00C3648094805008740B2512F8760722EF11
:10029E0064054E7017740B2512F8E63395E0C364AF
:0D02AE008094805007740B2512F8766322AF
:10078A001209FB120A321202BB1207D48F14EF337A
:10079A0095E0FEEF64014E701CAF0AEF3395E0FE60
:1007AA004F7007750A01F512800BEF64014E700550
:1007BA00F50A1202BBE50A14600804700812052340
:0A07CA00800312000E12052380BF09
:03000B0002085197
:09085100C0E0C0D075D000C00762
:10085A00758A18758CFC0509E50970020508C394A8
:10086A00F4E50894014012750800750900E5137053
:09087A00047F0180027F008F134E
:07088300D007D0D0D0E03215
:1004A30002078AE493A3F8E493A34003F68001F2DE
:1004B30008DFF48029E493A3F85407240CC8C3335A
:1004C300C4540F4420C8834004F456800146F6DF29
:1004D300E4800B01020408102040809009E5E47ECB
:1004E300019360BCA3FF543F30E509541FFEE4931E
:1004F300A360010ECF54C025E060A840B8E493A3E5
:10050300FAE493A3F8E493A3C8C582C8CAC583CA0F
:10051300F0A3C8C582C8CAC583CADFE9DEE780BEC7
:0109FA0000FC
:1003E100C2D530F707B2D563F0FF05F030E70CB2A4
:1003F100D5F4048463F0FF05F080018430D502F464
:020401000422D3
:10040300BB010CE58229F582E5833AF583E02250AE
:1004130006E92582F8E622BBFE06E92582F8E222F8
:0D042300E58229F582E5833AF583E4932212
:10043000EF8DF0A4A8F0CF8CF0A428CE8DF0A42EE0
:02044000FE229A
:10044200BC000BBE0029EF8DF084FFADF022E4CC9E
:10045200F875F008EF2FFFEE33FEEC33FCEE9DEC67
:10046200984005FCEE9DFE0FD5F0E9E4CEFD22EDAD
:10047200F8F5F0EE8420D21CFEADF075F008EF2FF7
:10048200FFED33FD4007985006D5F0F222C398FDE8
:050492000FD5F0EA2285
:00000001FF
