:03000000020003F8
:0C000300787FE4F6D8FD75811302004AF6
:0C0155000A083F065B4F666D7D077F6F58
:0A013C00EF1FAC0670011E4C600EB0
:0C0146007512027513EFD513FDD512FAE7
:0301520080E82220
:03008F000D7C00E5
:10009200EF14B4080050549000A775F003A4C58370
:1000A20025F0C583730200BF0200C30200C702002D
:1000B200CB0200CF0200D70200DF0200E7C2A48019
:1000C2000EC2A48012C2A48016C2A4801AD2A4C2F4
:1000D200A3C2A28016D2A4C2A3D2A2800ED2A4D25C
:1000E200A3C2A28006D2A4D2A3D2A274082DF8E69B
:0D00F200F5807F017E0012013CE4F58022C4
:1000FF007D017C007F011200927F0212008F7F032F
:10010F0012008F0D7C007F041200920D7C007F0582
:10011F001200920D7C007F061200920D7C007F076B
:0D012F001200920D7C007F0812009280C328
:10000F000200FFE493A3F8E493A34003F68001F208
:10001F0008DFF48029E493A3F85407240CC8C333F2
:10002F00C4540F4420C8834004F456800146F6DFC1
:10003F00E4800B0102040810204080900155E47EFB
:10004F00019360BCA3FF543F30E509541FFEE493B6
:10005F00A360010ECF54C025E060A840B8E493A37D
:10006F00FAE493A3F8E493A3C8C582C8CAC583CAA8
:10007F00F0A3C8C582C8CAC583CADFE9DEE780BE60
:01016100009D
:00000001FF
