:0300000002007586
:0C007500787FE4F6D8FD758109020003D5
:040058007F147E0093
:0A005C00EF1FAC0670011E4C600E91
:0C0066007508027509EFD509FDD508FAF0
:0300720080E82201
:1000030075A0FE2092241200583092FD1200580D64
:10001300EDC39408748094804002E4FDA805740144
:10002300088002C333D8FCF4F5A02093D6120058FD
:100033003093FD120058EDD39400748094805004E3
:100043007D0780011DA8057401088002C333D8FC15
:05005300F4F5A080AEF1
:00000001FF
