:0300000002014DAD
:0C014D00787FE4F6D8FD7581340201943F
:05066C0054696D6500FA
:09061200071B373B170507021610
:05066700C2B5C2B6227D
:0501D900FDEC35F0FC17
:0601DE008C128D13AB072B
:1001E400D2B5E4FDEDFF3395E0FEC3EF9408EE6471
:1001F40080948050227E007401A805088005C333D2
:10020400CE33CED8F9FFEBF582EF558224FF92B4BA
:10021400D2B6C2B60D80CDE4FDEDFF3395E0FEC34A
:10022400EF9408EE6480948050247E007401A80545
:10023400088005C333CE33CED8F9FFE5125EFEE560
:10024400135F4E24FF92B4D2B6C2B60D80CBC2B5B2
:010254002287
:02033900A90712
:10033B00E4FD430101D2B5FBEBC3940874809480B8
:10034B0050227E007401A803088005C333CE33CE40
:10035B00D8F9FFE9F582EF558224FF92B4C2B6D2E9
:10036B00B60B80D4E4FBEBC39408748094805017D5
:10037B00D2B6C2B630B40DA8037401088002C333E1
:10038B00D8FC42050B80DFC2B5C2B4EDC4540F7567
:09039B00F00AA4FFED540F2FFF3E
:0103A4002236
:10000300E51B75F00A8475F006A47C00251B7F8030
:100013001201D9E51C75F00A8475F006A47C00254D
:100023001C7F821201D9E51D75F00A8475F006A4C0
:100033007C00251DFDEC35F0FC7F841201DEE51EFE
:1000430075F00A8475F006A47C00251EFDEC35F0DE
:10005300FC7F861201DEE51F75F00A8475F006A4A5
:100063007C00251FFDEC35F0FC7F881201DEE520C6
:1000730075F00A8475F006A47C002520FDEC35F0AC
:10008300FC7F8A1201DEE52175F00A8475F006A46F
:100093007C002521FDEC35F0FC7F8C1201DEE5228E
:1000A30075F00A8475F006A47C002522FDEC35F07A
:0600B300FC7F8E0201DE5D
:100255001206281206671200037BFF7A06796C7D69
:10026500017F011205427F89120339EFFB7A007580
:1002750016027D017F0212051E7F87120339EFFBEF
:100285007A007516027D047F0212051E7F85120312
:1002950039EFFB7A007516027D077F0212051E7F76
:1002A50083120339EFFB7A007516027D0A7F02126D
:1002B500051E7F81120339EFFB7A007516027D0D4D
:0702C5007F0212051E80926A
:0C061B000A083F065B4F666D7D077F6F8D
:0405C3007F147E0023
:0A05C700EF1FAC0670011E4C600E21
:0C05D1007533027534EFD534FDD533FAD4
:0305DD0080E82291
:1002CC00EF14B4080050549002E175F003A4C583F8
:1002DC0025F0C583730202F90202FD020301020339
:1002EC0005020309020311020319020321C2A480AF
:1002FC000EC2A48012C2A48016C2A4801AD2A4C2B8
:10030C00A3C2A28016D2A4C2A3D2A2800ED2A4D21F
:10031C00A3C2A28006D2A4D2A3D2A274082DF8E65E
:0D032C00F5807F017E001205C7E4F58022F8
:10043A00E4FD20B10E7F14FE1205C730B1FD12058E
:10044A00C37D0120B00B1205C330B0FD1205C37D78
:10045A000220B20B1205C330B2FD1205C37D032080
:0F046A00B30B1205C330B3FD1205C37D04AF05FC
:010479002260
:1005FB005389F0438901758A18758CFCC28DD28C96
:07060B00D2A9D2AFC2B9224F
:1005E00075985043878053890F438920758BF37525
:0B05F0008DF3C2ABD28ED2AFD2AC2292
:08065F008F993099FDC2992228
:0204B700AD078F
:1004B900E4FBEBC394087480948050237E0074801D
:1004C900A803088006CEA2E713CE13D8F8FFEDF5EE
:1004D90082EF558224FF92B4D2B6C2B60B80D3D232
:0304E900B5C2B5E4
:0104EC0022ED
:10056500AA07AF051204B7AF02A807748008800276
:10057500C313D8FCF4F5807F017E001205C7758092
:02058500FF2253
:06063C00C2A58F80D2A7C9
:080642007F027EEFDEFEDFFC0B
:01064A00228D
:0A064B00C2A612063CC2A702064236
:10058700CFCDCFCECCCE1200F87C007D0A1200F87A
:04059700ED2430FF20
:0A059B00D2A612063CC2A7020642D7
:1005A500AE07EEFB7A0064017004ED148009EB647C
:0E05B500024A7009ED243F4480FF12064B22DB
:100628007F3812064B7F0C12064B7F0612064B7F53
:040638000102064B6A
:0A065500AC031205A5AF0402059BDB
:060542008B128A138914DC
:100548001205A5E4FDAB12AA13A9148D82758300C8
:0C0558001200B9FF600612059B0D80E93F
:010564002274
:0A04ED00EF24FFFDEE34FFFC7F0A50
:0804F7008E178F188C198D1A65
:1004FF007F017E00E4FBEBC3951AE5196480F87465
:0E050F008098500AAC17AD181200E60B80E879
:01051D0022BB
:04051E008A148B159B
:100522001205A5AA16EAFF7E00D394007480948077
:0F053200400D1204EDAC14AD151205871A80E6CA
:010541002297
:0403F0008B828A83EF
:1003F4001205A5C3E58364809480400D7F2B12050C
:100404009B85832785822880107F2D12059BC3E45A
:100414009582F528E49583F527AA26EAFF7E00D382
:10042400940074809480400D1204EDAC27AD281222
:0504340005871A80E6B7
:0104390022A0
:0403A5008A2B8B2CE8
:1003A9001205A5AA2DEAD39400748094804037EAF7
:1003B90024FFFDE434FFFC7F107E001204F7AC2B10
:1003C900AD2CCFCDCFCECCCE1200F8EF540FFEC35B
:1003D900940A74809480EE5004243080022437FFFC
:0603E90012059B1A80BF03
:0103EF0022EB
:04047A008A308B3108
:10047E001205A5AA32EAFF7E00D394007480948000
:10048E004026EF24FFFDEE34FFFC7F021204F7AC92
:10049E0030AD31CFCDCFCECCCE1200F8EF540124FB
:0804AE0030FF12059B1A80CDFE
:0104B6002223
:10015900020255E493A3F8E493A34003F68001F265
:1001690008DFF48029E493A3F85407240CC8C333A7
:10017900C4540F4420C8834004F456800146F6DF76
:10018900E4800B0102040810204080900612E47EEE
:10019900019360BCA3FF543F30E509541FFEE4936B
:1001A900A360010ECF54C025E060A840B8E493A332
:1001B900FAE493A3F8E493A3C8C582C8CAC583CA5D
:1001C900F0A3C8C582C8CAC583CADFE9DEE780BE15
:0106270000D2
:1000B900BB010CE58229F582E5833AF583E02250FC
:1000C90006E92582F8E622BBFE06E92582F8E22246
:0D00D900E58229F582E5833AF583E4932260
:1000E600EF8DF0A4A8F0CF8CF0A428CE8DF0A42E2E
:0200F600FE22E8
:1000F800BC000BBE0029EF8DF084FFADF022E4CCEC
:10010800F875F008EF2FFFEE33FEEC33FCEE9DECB4
:10011800984005FCEE9DFE0FD5F0E9E4CEFD22EDFA
:10012800F8F5F0EE8420D21CFEADF075F008EF2F44
:10013800FFED33FD4007985006D5F0F222C398FD35
:050148000FD5F0EA22D2
:00000001FF
