:03000000020003F8
:0C000300787FE4F6D8FD75811302004AF6
:1000FC00C2B6C2B5E4FDFCFF1201BD7D607C007F81
:10010C00011201BD7D6E7C007F021201BD7D1C7C45
:10011C00007F031201BD7D1C7C007F041201BD7D9C
:10012C006E7C007F051201BD7D607C007F06120194
:0B013C00BDE4FDFC7F071201BD80B98F
:0C022E000A083F065B4F666D7D077F6F7E
:0401DF007F147E000B
:0A01E300EF1FAC0670011E4C600E09
:0C01ED007512027513EFD513FDD512FA40
:0301F90080E82279
:10008F00EF14B4080050549000A475F003A4C58376
:10009F0025F0C583730200BC0200C00200C4020039
:1000AF00C80200CC0200D40200DC0200E4C2A4802B
:1000BF000EC2A48012C2A48016C2A4801AD2A4C2F7
:1000CF00A3C2A28016D2A4C2A3D2A2800ED2A4D25F
:1000DF00A3C2A28006D2A4D2A3D2A274082DF8E69E
:0D00EF00F5807F017E001201E3E4F5802220
:10014700E4FD20B10E7F14FE1201E330B1FD120170
:10015700DF7D0120B00B1201DF30B0FD1201DF7D22
:100167000220B20B1201DF30B2FD1201DF7D032046
:0F017700B30B1201DF30B3FD1201DF7D04AF05C2
:010186002256
:100217005389F0438901758A18758CFCC28DD28C7D
:07022700D2A9D2AFC2B92237
:1001FC0075985043878053890F438920758BF3750D
:0B020C008DF3C2ABD28ED2AFD2AC2279
:08023B008F993099FDC2992250
:02018700AD07C2
:10018900E4FBEBC394087480948050237E00748050
:10019900A803088006CEA2E713CE13D8F8FFEDF521
:1001A90082EF558224FF92B4D2B6C2B60B80D3D265
:0301B900B5C2B517
:0101BC002220
:1001BD00AA07AF05120187AF02A807748008800255
:1001CD00C313D8FCF4F5807F017E001201E3758026
:0201DD00FF22FF
:10000F000200FCE493A3F8E493A34003F68001F20B
:10001F0008DFF48029E493A3F85407240CC8C333F2
:10002F00C4540F4420C8834004F456800146F6DFC1
:10003F00E4800B010204081020408090022EE47E21
:10004F00019360BCA3FF543F30E509541FFEE493B6
:10005F00A360010ECF54C025E060A840B8E493A37D
:10006F00FAE493A3F8E493A3C8C582C8CAC583CAA8
:10007F00F0A3C8C582C8CAC583CADFE9DEE780BE60
:01023A0000C3
:00000001FF
